:020000040800F2
:1000000000500020D5100008251100082511000817
:100010002511000825110008251100080000000026
:100020000000000000000000000000002511000892
:100030002511000800000000251100082511000806
:1000400025110008251100082511000825110008B8
:1000500025110008251100084D070008251100088A
:100060002511000825110008251100082511000898
:100070002511000825110008251100082511000888
:100080002511000825110008251100082511000878
:100090002511000825110008251100082511000868
:1000A0002511000825110008251100082511000858
:1000B0002511000825110008251100082511000848
:1000C0002511000825110008251100082511000838
:1000D0002511000825110008251100082511000828
:1000E0002511000825110008000000002511000856
:1000F0002511000825110008251100082511000808
:1001000025110008251100082511000825110008F7
:1001100025110008251100082511000825110008E7
:1001200025110008251100082511000825110008D7
:1001300010B5054C237833B9044B13B10448AFF321
:1001400000800123237010BD00000020000000008B
:100150007011000808B5034B1BB103490348AFF306
:10016000008008BD0000000004000020701100089D
:10017000034613F8012B002AFBD1181A01387047E7
:1001800080B483B000AF0346FB710B46BB711346CE
:100190007B71FB79022B00F2B380BB790F2B00F24D
:1001A000AF80BB79072B52D8FB79022B37D0022BBB
:1001B00000F3A680002B02D0012B18D0A0E0534BF7
:1001C0001B68BA7992000F2101FA02F2D24311465C
:1001D0004E4A0B4013604D4B1B687979BA799200F7
:1001E00001FA02F21146494A0B43136088E0484B7A
:1001F0001B68BA7992000F2101FA02F2D24311462C
:10020000434A0B401360424B1B687979BA799200DC
:1002100001FA02F211463E4A0B43136070E03D4B77
:100220001B68BA7992000F2101FA02F2D2431146FB
:10023000384A0B401360374B1B687979BA799200C2
:1002400001FA02F21146334A0B43136058E0BB79BE
:100250000F2B54D8BB79083BBB71FB79022B36D0EE
:10026000022B4DDC002B02D0012B18D048E02A4B8A
:100270001B68BA7992000F2101FA02F2D2431146AB
:10028000254A0B401360244B1B687979BA79920098
:1002900001FA02F21146204A0B43136030E01F4B73
:1002A0001B68BA7992000F2101FA02F2D24311467B
:1002B0001A4A0B401360194B1B687979BA7992007E
:1002C00001FA02F21146154A0B43136018E0144B71
:1002D0001B68BA7992000F2101FA02F2D24311464B
:1002E0000F4A0B4013600E4B1B687979BA79920064
:1002F00001FA02F211460A4A0B43136000E000BF04
:1003000000BF0C37BD4680BC704700BF00080140ED
:10031000000C01400010014004080140040C0140A1
:100320000410014080B483B000AF0346FB710B465C
:10033000BB7113467B71FB79022B41D8BB790F2B24
:100340003ED87B79012B1BD1FB79022B12D0022BDB
:1003500036DC002B02D0012B06D031E0BB79012224
:100360009A401A4B1A602BE0BB7901229A40184B35
:100370001A6025E0BB7901229A40164B1A601FE0F3
:100380007B79002B1BD1FB79022B12D0022B17DCBF
:10039000002B02D0012B06D012E0BB7901229A403B
:1003A0000D4B1A600CE0BB7901229A400B4B1A608E
:1003B00006E0BB7901229A40094B1A6000E000BFB9
:1003C00000BF0C37BD4680BC704700BF100801401D
:1003D000100C01401010014014080140140C0140A1
:1003E0001410014080B483B000AF03460A46FB718D
:1003F0001346BB71BB79022B00F0B480022B00F3D3
:100400000781002B02D0012B56D001E1FB790F2B85
:1004100052D801A252F823F0590400085F040008E2
:10042000650400086B0400087104000877040008E4
:100430007D04000883040008890400088F04000874
:10044000950400089B040008A1040008A704000804
:10045000AD040008B3040008704B00221A606F4B13
:1004600000221A606D4B00221A606C4B00221A6049
:100470006B4B00221A606A4B00221A60684B002204
:100480001A60674B00221A60664B00221A60654BA7
:1004900000221A60634B00221A60624B00221A602D
:1004A000614B00221A60604B00221A605E4B0022F2
:1004B0001A605D4B00221A60FB790F2B52D801A203
:1004C00052F823F0050500080B0500081105000887
:1004D000170500081D050008230500082905000868
:1004E0002F050008350500083B05000841050008F8
:1004F000470500084D050008530500085905000888
:100500005F050008454B01221A60444B01221A6026
:10051000424B01221A60414B01221A60404B0122DA
:100520001A603F4B01221A603D4B01221A603C4B7E
:1005300001221A603B4B01221A603A4B01221A60D9
:10054000384B01221A60374B01221A60364B0122C8
:100550001A60354B01221A60334B01221A60324B6C
:1005600001221A60FB790F2B52D801A252F823F016
:10057000B1050008B7050008BD050008C30500085F
:10058000C9050008CF050008D5050008DB050008EF
:10059000E1050008E7050008ED050008F30500087F
:1005A000F9050008FF050008050600080B0600080D
:1005B0001A4B10221A60194B10221A60174B102286
:1005C0001A60164B10221A60154B10221A60144B39
:1005D00010221A60124B10221A60114B10221A605E
:1005E000104B10221A600F4B10221A600D4B102274
:1005F0001A600C4B10221A600B4B10221A600A4B27
:1006000010221A60084B10221A60074B10221A6041
:1006100000BF0C37BD4680BC704700BF08000140DA
:100620000C000140100001401400014080B483B070
:1006300000AF0346FB71074B1B68FA79012101FAF1
:1006400002F21146034A0B43136000BF0C37BD464C
:1006500080BC70470004014080B483B000AF034603
:100660000A46FB711346BB71BB79022B31D0022BBA
:1006700044DC002B17D0012B40D1284B9B68FA7922
:10068000012101FA02F21146244A0B439360234BE5
:10069000DB68FA79012101FA02F2D24311461F4ABE
:1006A0000B40D3602AE01D4BDB68FA79012101FA87
:1006B00002F21146194A0B43D360184B9B68FA7932
:1006C000012101FA02F2D2431146144A0B40936011
:1006D00014E0124B9B68FA79012101FA02F21146EB
:1006E0000E4A0B4393600D4BDB68FA79012101FA46
:1006F00002F21146094A0B43D36000BF074B1B6847
:10070000FA79012101FA02F21146044A0B431360FF
:1007100000BF0C37BD4680BC704700BF00040140DD
:1007200080B483B000AF78600B46FB707B68002B11
:1007300004D0FB7804497A6841F8232000BF0C37C5
:10074000BD4680BC704700BF1C00002080B500AFD4
:10075000074B1B68002B08D0054B1B689847054BBF
:100760005B69044A43F00103536100BF80BD00BFD1
:100770001C0000200004014080B582B000AF0023BF
:10078000FB7102220D210220FFF7FAFC02220E214A
:100790000220FFF7F5FC02220F210220FFF7F0FCF8
:1007A000022204210020FFF7EBFC02220521002099
:1007B000FFF7E6FC022206210020FFF7E1FC0222FF
:1007C00007210020FFF7DCFC282000F013FA282086
:1007D00000F018F8142000F00DFA0C2000F012F8C8
:1007E000142000F007FA062000F00CF8012000F0B9
:1007F00009F8142000F0FEF9FB7918460837BD46C9
:1008000080BD000080B588B000AF0346FB710023B7
:10081000FB753C4A07F10C0392E8030083E80300F0
:1008200000220D210220FFF77DFD00220E21022073
:10083000FFF778FD00220F210220FFF773FD002350
:10084000FB6115E0FB69043320333B4413F8141CAF
:10085000FA79FB69043342FA03F3DBB203F00103D4
:10086000DBB21A460020FFF75DFDFB690133FB6137
:10087000FB69032BE6DD01220F210220FFF752FD69
:10088000012000F0B7F900220F210220FFF74AFDF6
:100890000023BB6114E0BB69043320333B4413F8ED
:1008A000141CFA79BB6942FA03F3DBB203F00103CB
:1008B000DBB21A460020FFF735FDBB690133BB618F
:1008C000BB69032BE7DD01220F210220FFF72AFD80
:1008D000142000F08FF900220F210220FFF722FDE3
:1008E00000220F210220FFF71DFD012000F082F9F8
:1008F00001220F210220FFF715FDFB7D184620374E
:10090000BD4680BD8811000880B586B000AF0346A3
:10091000FB71374A07F1080392E8030083E80300FC
:1009200001220D210220FFF7FDFC00220E210220F2
:10093000FFF7F8FC00220F210220FFF7F3FC05204F
:1009400000F058F900237B6115E07B69043318330C
:100950003B4413F8101CFA797B69043342FA03F321
:10096000DBB203F00103DBB21A460020FFF7DAFC2A
:100970007B6901337B617B69032BE6DD01220F215B
:100980000220FFF7CFFC012000F034F900220F21F4
:100990000220FFF7C7FC00233B6114E03B690433EE
:1009A00018333B4413F8101CFA793B6942FA03F3FD
:1009B000DBB203F00103DBB21A460020FFF7B2FC02
:1009C0003B6901333B613B69032BE7DD01220F21CA
:1009D0000220FFF7A7FC012000F00CF900220F21F4
:1009E0000220FFF79FFC00BF18461837BD4680BDA8
:1009F0008811000880B584B000AF78600023FB60E8
:100A000012E0FB68102B02D1C020FFF7FBFEFB6851
:100A10007A6813441B781846FFF776FF032000F02E
:100A2000E9F8FB680133FB607868FFF7A1FB024639
:100A3000FB689A42E5D800BF18461037BD4680BD16
:100A400080B500AF0120FFF7DDFE012000F0D2F8F5
:100A500000BF184680BD000080B400AF034B044ABD
:100A60001A6000BFBD4680BC704700BF0CED00E0BF
:100A70000005FA0580B483B000AF0346FB71FB7933
:100A80001F2B05D8FB7901229A40094B1A600AE016
:100A9000FB793F2B07D8FB79203BFB71FB790122C7
:100AA0009A40044B1A6000BF0C37BD4680BC7047AB
:100AB00000E100E004E100E080B483B000AF012376
:100AC000FB71254B1B68244A43F00103136000BFF0
:100AD000214B1B685B0803F00103002BF8D01F4B70
:100AE0001B681E4A23F0010313601C4B1B681B4A42
:100AF00023F002031360194B1B68184A23F080632C
:100B00001360154B1B68144A23F400231360134B26
:100B10001B68124A23F480431360104B1B680F4A72
:100B200023F4004313600D4B1B680C4A23F400535D
:100B300013600A4B1B68094A23F480631360074B58
:100B40001B68064A23F08003136000BF18460C3769
:100B5000BD4680BC704700BF001002400410024038
:100B600080B485B000AF03460A46FB711346BB71E3
:100B70000023FB73BB791F2B2DD8FB79022B1CD0D4
:100B8000022B25DC002B02D0012B0BD020E0164BD2
:100B90001B68BA79012101FA02F21146124A0B438D
:100BA000136015E0114B1B68BA79012101FA02F2BA
:100BB00011460E4A0B4313600AE00D4B1B68BA79CD
:100BC000012101FA02F21146094A0B43136000BFEA
:100BD0000123FB7301E00323FB73FB7B18461437EF
:100BE000BD4680BC704700BF141002401C1002407C
:100BF0001810024080B485B000AF78600023FB601D
:100C000003E000BFFB680133FB607B684FF4FA72BE
:100C100002FB03F3FA689A42F3D300BF00BF143714
:100C2000BD4680BC7047000080B500AF7648FFF736
:100C3000E1FE00220C210120FFF774FB01220D21AF
:100C40000120FFF76FFB00220E210120FFF76AFB56
:100C5000002207210120FFF765FB01220821012066
:100C6000FFF760FB002209210120FFF75BFB4FF437
:100C7000FA70FFF7BFFF00220D210120FFF752FBA2
:100C8000002208210120FFF74DFBC820FFF7B2FF2B
:100C900001220D210120FFF745FB0122082101203F
:100CA000FFF740FB4FF4FA70FFF7A4FF00220D217D
:100CB0000120FFF737FB002208210120FFF732FB5C
:100CC000C820FFF797FF01220D210120FFF72AFB23
:100CD000012208210120FFF725FB4FF4FA70FFF7EE
:100CE00089FF00220D210120FFF71CFB00220821B3
:100CF0000120FFF717FB00220C210120FFF712FB58
:100D000000220D210120FFF70DFB01220E21012001
:100D1000FFF708FB012207210120FFF703FB002258
:100D200008210120FFF7FEFA002209210120FFF728
:100D3000F9FA4FF47A70FFF75DFF00220C210120D1
:100D4000FFF7F0FA01220D210120FFF7EBFA002254
:100D50000E210120FFF7E6FA002207210120FFF70C
:100D6000E1FA012208210120FFF7DCFA0022092123
:100D70000120FFF7D7FA4FF4FA70FFF73BFF00228C
:100D80000D210120FFF7CEFA002208210120FFF7F4
:100D9000C9FAC820FFF72EFF01220D210120FFF71D
:100DA000C1FA012208210120FFF7BCFA4FF4FA70C2
:100DB000FFF720FF00220D210120FFF7B3FA0022E8
:100DC00008210120FFF7AEFAC820FFF713FF012228
:100DD0000D210120FFF7A6FA012208210120FFF7CB
:100DE000A1FA4FF4FA70FFF705FF00220D21012050
:100DF000FFF798FA002208210120FFF793FAFFF786
:100E00001FFE00BF80BD00BF9011000880B500AF7D
:100E1000FFF752FE04210220FFF7A2FE022102206A
:100E2000FFF79EFE03210220FFF79AFE0021022019
:100E3000FFF796FE01220C210120FFF7A1F9012204
:100E40000D210120FFF79CF901220E210120FFF75F
:100E500097F9012207210120FFF792F901220821C9
:100E60000120FFF78DF9012209210120FFF788F900
:100E7000082200210020FFF783F901220021002031
:100E8000FFF750FA00210020FFF7E6FB0021904811
:100E9000FFF746FCFFF7E0FD0620FFF7EBFD002122
:100EA0000020FFF79FFA0020FFF7C0FBFFF764FC6C
:100EB0003220FFF79FFEFFF7C3FD01220C21012026
:100EC000FFF730FA00220D210120FFF72BFA002254
:100ED0000E210120FFF726FA002207210120FFF74B
:100EE00021FA002208210120FFF71CFA0122092122
:100EF0000120FFF717FA4FF44870FFF77BFE00223E
:100F00000C210120FFF70EFA01220D210120FFF72D
:100F100009FA00220E210120FFF704FA002207211E
:100F20000120FFF7FFF9012208210120FFF7FAF95C
:100F3000002209210120FFF7F5F94FF49670FFF721
:100F400059FE00220D210120FFF7ECF900220821B3
:100F50000120FFF7E7F9C820FFF74CFE01220D2121
:100F60000120FFF7DFF9012208210120FFF7DAF95C
:100F70004FF49670FFF73EFE00220D210120FFF78F
:100F8000D1F9002208210120FFF7CCF9C820FFF792
:100F900031FE01220D210120FFF7C4F901220821B1
:100FA0000120FFF7BFF94FF49670FFF723FE0022F0
:100FB0000D210120FFF7B6F9002208210120FFF7DB
:100FC000B1F900220C210120FFF7ACF900220D211C
:100FD0000120FFF7A7F901220E210120FFF7A2F956
:100FE000012207210120FFF79DF90022082101209D
:100FF000FFF798F9002209210120FFF793F94FF438
:101000004870FFF7F7FD00220C210120FFF78AF955
:1010100001220D210120FFF785F900220E21012078
:10102000FFF780F9002207210120FFF77BF9012259
:1010300008210120FFF776F9002209210120FFF79E
:1010400071F94FF49670FFF7D5FD00220D210120B4
:10105000FFF768F9002208210120FFF763F9C82093
:10106000FFF7C8FD01220D210120FFF75BF90122E6
:1010700008210120FFF756F94FF49670FFF7BAFDEB
:1010800000220D210120FFF74DF900220821012047
:10109000FFF748F9C820FFF7ADFD01220D2101201F
:1010A000FFF740F9012208210120FFF73BF94FF437
:1010B0009670FFF79FFD00220D210120FFF732F906
:1010C000002208210120FFF72DF9FFF7B9FCF2E615
:1010D000290C00080D488546AFF300800C480D49E7
:1010E0000D4A002302E0D458C4500433C4188C4283
:1010F000F9D30A4A0A4C002301E013600432A242E9
:10110000FBD300F011F8FFF781FEFEE7005000204E
:101110000000002000000020AC11000800000020AA
:101120005C000020FEE7000070B500260C4D0D4C61
:10113000641BA410A64209D100F01AF800260A4D3B
:101140000A4C641BA410A64205D170BD55F8043B9F
:1011500098470136EEE755F8043B98470136F2E729
:10116000A4110008A4110008A4110008A811000887
:10117000F8B500BFF8BC08BC9E467047F8B500BF84
:08118000F8BC08BC9E46704754
:101188000001020304050607486950656465737425
:0C1198007269616E5761697421000000EB
:0411A40055010008E9
:0411A8003101000809
:04000005080010D50A
:00000001FF
